{"contracts/FundingRate.sol":{"FundingRate":{"abi":[{"inputs":[],"stateMutability":"nonpayable","type":"constructor"},{"inputs":[{"internalType":"address","name":"owner","type":"address"}],"name":"OwnableInvalidOwner","type":"error"},{"inputs":[{"internalType":"address","name":"account","type":"address"}],"name":"OwnableUnauthorizedAccount","type":"error"},{"anonymous":false,"inputs":[{"indexed":false,"internalType":"int256","name":"fundingRate","type":"int256"},{"indexed":false,"internalType":"int256","name":"cumulativeFunding","type":"int256"},{"indexed":false,"internalType":"uint256","name":"blockNumber","type":"uint256"}],"name":"FundingUpdated","type":"event"},{"anonymous":false,"inputs":[{"indexed":true,"internalType":"address","name":"previousOwner","type":"address"},{"indexed":true,"internalType":"address","name":"newOwner","type":"address"}],"name":"OwnershipTransferred","type":"event"},{"anonymous":false,"inputs":[{"indexed":true,"internalType":"address","name":"engine","type":"address"}],"name":"PerpEngineSet","type":"event"},{"inputs":[],"name":"FUNDING_INTERVAL","outputs":[{"internalType":"uint256","name":"","type":"uint256"}],"stateMutability":"view","type":"function"},{"inputs":[],"name":"RATE_FACTOR","outputs":[{"internalType":"int256","name":"","type":"int256"}],"stateMutability":"view","type":"function"},{"inputs":[],"name":"calculateFundingRate","outputs":[{"internalType":"int256","name":"","type":"int256"}],"stateMutability":"view","type":"function"},{"inputs":[],"name":"cumulativeFunding","outputs":[{"internalType":"int256","name":"","type":"int256"}],"stateMutability":"view","type":"function"},{"inputs":[],"name":"getCumulativeFunding","outputs":[{"internalType":"int256","name":"","type":"int256"}],"stateMutability":"view","type":"function"},{"inputs":[],"name":"lastFundingBlock","outputs":[{"internalType":"uint256","name":"","type":"uint256"}],"stateMutability":"view","type":"function"},{"inputs":[],"name":"longOI","outputs":[{"internalType":"uint256","name":"","type":"uint256"}],"stateMutability":"view","type":"function"},{"inputs":[],"name":"owner","outputs":[{"internalType":"address","name":"","type":"address"}],"stateMutability":"view","type":"function"},{"inputs":[],"name":"perpEngine","outputs":[{"internalType":"address","name":"","type":"address"}],"stateMutability":"view","type":"function"},{"inputs":[],"name":"renounceOwnership","outputs":[],"stateMutability":"nonpayable","type":"function"},{"inputs":[{"internalType":"address","name":"_perpEngine","type":"address"}],"name":"setPerpEngine","outputs":[],"stateMutability":"nonpayable","type":"function"},{"inputs":[],"name":"shortOI","outputs":[{"internalType":"uint256","name":"","type":"uint256"}],"stateMutability":"view","type":"function"},{"inputs":[{"internalType":"address","name":"newOwner","type":"address"}],"name":"transferOwnership","outputs":[],"stateMutability":"nonpayable","type":"function"},{"inputs":[{"internalType":"uint256","name":"_longOI","type":"uint256"},{"internalType":"uint256","name":"_shortOI","type":"uint256"}],"name":"updateOI","outputs":[],"stateMutability":"nonpayable","type":"function"}],"evm":{"bytecode":{"linkReferences":{},"object":"608060405234801561001057600080fd5b50338061003757604051631e4fbdf760e01b81526000600482015260240160405180910390fd5b6100408161004a565b504360055561009a565b600080546001600160a01b038381166001600160a01b0319831681178455604051919092169283917f8be0079c531659141344cd1fd0a4f28419497f9722a3daafe3b4186f6b6457e09190a35050565b6105aa806100a96000396000f3fe608060405234801561001057600080fd5b50600436106100ea5760003560e01c80639fd84dad1161008c578063b619daf711610066578063b619daf714610192578063dc5f1ea9146101a5578063e1241209146101ae578063f2fde38b146101b757600080fd5b80639fd84dad14610179578063a15b793414610181578063a40f1e001461018957600080fd5b8063700581e9116100c8578063700581e91461014a5780637067e88114610153578063715018a6146101605780638da5cb5b1461016857600080fd5b806345b784e0146100ef57806348ba4d2b1461010457806355efb28714610134575b600080fd5b6101026100fd366004610438565b6101ca565b005b600154610117906001600160a01b031681565b6040516001600160a01b0390911681526020015b60405180910390f35b61013c606481565b60405190815260200161012b565b61013c60035481565b61013c655af3107a400081565b6101026102ae565b6000546001600160a01b0316610117565b60045461013c565b61013c6102c2565b61013c60055481565b6101026101a036600461045a565b61032b565b61013c60045481565b61013c60025481565b6101026101c536600461045a565b61037d565b6001546001600160a01b0316331461021b5760405162461bcd60e51b815260206004820152600f60248201526e4f6e6c792050657270456e67696e6560881b60448201526064015b60405180910390fd5b60028290556003819055600554610234906064906104a0565b43106102aa5760006102446102c2565b9050806004600082825461025891906104b9565b90915550504360058190556004546040805184815260208101929092528101919091527fcb97491ef899ceb55f942df3513dc2c88ec9024b12fa8d525fff13dbc72895ab9060600160405180910390a1505b5050565b6102b66103bb565b6102c060006103e8565b565b60006003546002546102d491906104a0565b6000036102e15750600090565b60006003546002546102f391906104e1565b9050600060035460025461030791906104a0565b90508061031a655af3107a400084610508565b6103249190610538565b9250505090565b6103336103bb565b600180546001600160a01b0319166001600160a01b0383169081179091556040517ffd111688e3686ea2821d45ddcfbee4df0c026b55840ef0165af173924e7bf68090600090a250565b6103856103bb565b6001600160a01b0381166103af57604051631e4fbdf760e01b815260006004820152602401610212565b6103b8816103e8565b50565b6000546001600160a01b031633146102c05760405163118cdaa760e01b8152336004820152602401610212565b600080546001600160a01b038381166001600160a01b0319831681178455604051919092169283917f8be0079c531659141344cd1fd0a4f28419497f9722a3daafe3b4186f6b6457e09190a35050565b6000806040838503121561044b57600080fd5b50508035926020909101359150565b60006020828403121561046c57600080fd5b81356001600160a01b038116811461048357600080fd5b9392505050565b634e487b7160e01b600052601160045260246000fd5b808201808211156104b3576104b361048a565b92915050565b80820182811260008312801582168215821617156104d9576104d961048a565b505092915050565b81810360008312801583831316838312821617156105015761050161048a565b5092915050565b80820260008212600160ff1b841416156105245761052461048a565b81810583148215176104b3576104b361048a565b60008261055557634e487b7160e01b600052601260045260246000fd5b600160ff1b82146000198414161561056f5761056f61048a565b50059056fea2646970667358221220d2ffe2c95d4d4f0228ae7fde2e9f7eaada2062abc2572e15e9e07db20ddb501f64736f6c63430008180033","opcodes":"PUSH1 0x80 PUSH1 0x40 MSTORE CALLVALUE DUP1 ISZERO PUSH2 0x10 JUMPI PUSH1 0x0 DUP1 REVERT JUMPDEST POP CALLER DUP1 PUSH2 0x37 JUMPI PUSH1 0x40 MLOAD PUSH4 0x1E4FBDF7 PUSH1 0xE0 SHL DUP2 MSTORE PUSH1 0x0 PUSH1 0x4 DUP3 ADD MSTORE PUSH1 0x24 ADD PUSH1 0x40 MLOAD DUP1 SWAP2 SUB SWAP1 REVERT JUMPDEST PUSH2 0x40 DUP2 PUSH2 0x4A JUMP JUMPDEST POP NUMBER PUSH1 0x5 SSTORE PUSH2 0x9A JUMP JUMPDEST PUSH1 0x0 DUP1 SLOAD PUSH1 0x1 PUSH1 0x1 PUSH1 0xA0 SHL SUB DUP4 DUP2 AND PUSH1 0x1 PUSH1 0x1 PUSH1 0xA0 SHL SUB NOT DUP4 AND DUP2 OR DUP5 SSTORE PUSH1 0x40 MLOAD SWAP2 SWAP1 SWAP3 AND SWAP3 DUP4 SWAP2 PUSH32 0x8BE0079C531659141344CD1FD0A4F28419497F9722A3DAAFE3B4186F6B6457E0 SWAP2 SWAP1 LOG3 POP POP JUMP JUMPDEST PUSH2 0x5AA DUP1 PUSH2 0xA9 PUSH1 0x0 CODECOPY PUSH1 0x0 RETURN INVALID PUSH1 0x80 PUSH1 0x40 MSTORE CALLVALUE DUP1 ISZERO PUSH2 0x10 JUMPI PUSH1 0x0 DUP1 REVERT JUMPDEST POP PUSH1 0x4 CALLDATASIZE LT PUSH2 0xEA JUMPI PUSH1 0x0 CALLDATALOAD PUSH1 0xE0 SHR DUP1 PUSH4 0x9FD84DAD GT PUSH2 0x8C JUMPI DUP1 PUSH4 0xB619DAF7 GT PUSH2 0x66 JUMPI DUP1 PUSH4 0xB619DAF7 EQ PUSH2 0x192 JUMPI DUP1 PUSH4 0xDC5F1EA9 EQ PUSH2 0x1A5 JUMPI DUP1 PUSH4 0xE1241209 EQ PUSH2 0x1AE JUMPI DUP1 PUSH4 0xF2FDE38B EQ PUSH2 0x1B7 JUMPI PUSH1 0x0 DUP1 REVERT JUMPDEST DUP1 PUSH4 0x9FD84DAD EQ PUSH2 0x179 JUMPI DUP1 PUSH4 0xA15B7934 EQ PUSH2 0x181 JUMPI DUP1 PUSH4 0xA40F1E00 EQ PUSH2 0x189 JUMPI PUSH1 0x0 DUP1 REVERT JUMPDEST DUP1 PUSH4 0x700581E9 GT PUSH2 0xC8 JUMPI DUP1 PUSH4 0x700581E9 EQ PUSH2 0x14A JUMPI DUP1 PUSH4 0x7067E881 EQ PUSH2 0x153 JUMPI DUP1 PUSH4 0x715018A6 EQ PUSH2 0x160 JUMPI DUP1 PUSH4 0x8DA5CB5B EQ PUSH2 0x168 JUMPI PUSH1 0x0 DUP1 REVERT JUMPDEST DUP1 PUSH4 0x45B784E0 EQ PUSH2 0xEF JUMPI DUP1 PUSH4 0x48BA4D2B EQ PUSH2 0x104 JUMPI DUP1 PUSH4 0x55EFB287 EQ PUSH2 0x134 JUMPI JUMPDEST PUSH1 0x0 DUP1 REVERT JUMPDEST PUSH2 0x102 PUSH2 0xFD CALLDATASIZE PUSH1 0x4 PUSH2 0x438 JUMP JUMPDEST PUSH2 0x1CA JUMP JUMPDEST STOP JUMPDEST PUSH1 0x1 SLOAD PUSH2 0x117 SWAP1 PUSH1 0x1 PUSH1 0x1 PUSH1 0xA0 SHL SUB AND DUP2 JUMP JUMPDEST PUSH1 0x40 MLOAD PUSH1 0x1 PUSH1 0x1 PUSH1 0xA0 SHL SUB SWAP1 SWAP2 AND DUP2 MSTORE PUSH1 0x20 ADD JUMPDEST PUSH1 0x40 MLOAD DUP1 SWAP2 SUB SWAP1 RETURN JUMPDEST PUSH2 0x13C PUSH1 0x64 DUP2 JUMP JUMPDEST PUSH1 0x40 MLOAD SWAP1 DUP2 MSTORE PUSH1 0x20 ADD PUSH2 0x12B JUMP JUMPDEST PUSH2 0x13C PUSH1 0x3 SLOAD DUP2 JUMP JUMPDEST PUSH2 0x13C PUSH6 0x5AF3107A4000 DUP2 JUMP JUMPDEST PUSH2 0x102 PUSH2 0x2AE JUMP JUMPDEST PUSH1 0x0 SLOAD PUSH1 0x1 PUSH1 0x1 PUSH1 0xA0 SHL SUB AND PUSH2 0x117 JUMP JUMPDEST PUSH1 0x4 SLOAD PUSH2 0x13C JUMP JUMPDEST PUSH2 0x13C PUSH2 0x2C2 JUMP JUMPDEST PUSH2 0x13C PUSH1 0x5 SLOAD DUP2 JUMP JUMPDEST PUSH2 0x102 PUSH2 0x1A0 CALLDATASIZE PUSH1 0x4 PUSH2 0x45A JUMP JUMPDEST PUSH2 0x32B JUMP JUMPDEST PUSH2 0x13C PUSH1 0x4 SLOAD DUP2 JUMP JUMPDEST PUSH2 0x13C PUSH1 0x2 SLOAD DUP2 JUMP JUMPDEST PUSH2 0x102 PUSH2 0x1C5 CALLDATASIZE PUSH1 0x4 PUSH2 0x45A JUMP JUMPDEST PUSH2 0x37D JUMP JUMPDEST PUSH1 0x1 SLOAD PUSH1 0x1 PUSH1 0x1 PUSH1 0xA0 SHL SUB AND CALLER EQ PUSH2 0x21B JUMPI PUSH1 0x40 MLOAD PUSH3 0x461BCD PUSH1 0xE5 SHL DUP2 MSTORE PUSH1 0x20 PUSH1 0x4 DUP3 ADD MSTORE PUSH1 0xF PUSH1 0x24 DUP3 ADD MSTORE PUSH15 0x4F6E6C792050657270456E67696E65 PUSH1 0x88 SHL PUSH1 0x44 DUP3 ADD MSTORE PUSH1 0x64 ADD JUMPDEST PUSH1 0x40 MLOAD DUP1 SWAP2 SUB SWAP1 REVERT JUMPDEST PUSH1 0x2 DUP3 SWAP1 SSTORE PUSH1 0x3 DUP2 SWAP1 SSTORE PUSH1 0x5 SLOAD PUSH2 0x234 SWAP1 PUSH1 0x64 SWAP1 PUSH2 0x4A0 JUMP JUMPDEST NUMBER LT PUSH2 0x2AA JUMPI PUSH1 0x0 PUSH2 0x244 PUSH2 0x2C2 JUMP JUMPDEST SWAP1 POP DUP1 PUSH1 0x4 PUSH1 0x0 DUP3 DUP3 SLOAD PUSH2 0x258 SWAP2 SWAP1 PUSH2 0x4B9 JUMP JUMPDEST SWAP1 SWAP2 SSTORE POP POP NUMBER PUSH1 0x5 DUP2 SWAP1 SSTORE PUSH1 0x4 SLOAD PUSH1 0x40 DUP1 MLOAD DUP5 DUP2 MSTORE PUSH1 0x20 DUP2 ADD SWAP3 SWAP1 SWAP3 MSTORE DUP2 ADD SWAP2 SWAP1 SWAP2 MSTORE PUSH32 0xCB97491EF899CEB55F942DF3513DC2C88EC9024B12FA8D525FFF13DBC72895AB SWAP1 PUSH1 0x60 ADD PUSH1 0x40 MLOAD DUP1 SWAP2 SUB SWAP1 LOG1 POP JUMPDEST POP POP JUMP JUMPDEST PUSH2 0x2B6 PUSH2 0x3BB JUMP JUMPDEST PUSH2 0x2C0 PUSH1 0x0 PUSH2 0x3E8 JUMP JUMPDEST JUMP JUMPDEST PUSH1 0x0 PUSH1 0x3 SLOAD PUSH1 0x2 SLOAD PUSH2 0x2D4 SWAP2 SWAP1 PUSH2 0x4A0 JUMP JUMPDEST PUSH1 0x0 SUB PUSH2 0x2E1 JUMPI POP PUSH1 0x0 SWAP1 JUMP JUMPDEST PUSH1 0x0 PUSH1 0x3 SLOAD PUSH1 0x2 SLOAD PUSH2 0x2F3 SWAP2 SWAP1 PUSH2 0x4E1 JUMP JUMPDEST SWAP1 POP PUSH1 0x0 PUSH1 0x3 SLOAD PUSH1 0x2 SLOAD PUSH2 0x307 SWAP2 SWAP1 PUSH2 0x4A0 JUMP JUMPDEST SWAP1 POP DUP1 PUSH2 0x31A PUSH6 0x5AF3107A4000 DUP5 PUSH2 0x508 JUMP JUMPDEST PUSH2 0x324 SWAP2 SWAP1 PUSH2 0x538 JUMP JUMPDEST SWAP3 POP POP POP SWAP1 JUMP JUMPDEST PUSH2 0x333 PUSH2 0x3BB JUMP JUMPDEST PUSH1 0x1 DUP1 SLOAD PUSH1 0x1 PUSH1 0x1 PUSH1 0xA0 SHL SUB NOT AND PUSH1 0x1 PUSH1 0x1 PUSH1 0xA0 SHL SUB DUP4 AND SWAP1 DUP2 OR SWAP1 SWAP2 SSTORE PUSH1 0x40 MLOAD PUSH32 0xFD111688E3686EA2821D45DDCFBEE4DF0C026B55840EF0165AF173924E7BF680 SWAP1 PUSH1 0x0 SWAP1 LOG2 POP JUMP JUMPDEST PUSH2 0x385 PUSH2 0x3BB JUMP JUMPDEST PUSH1 0x1 PUSH1 0x1 PUSH1 0xA0 SHL SUB DUP2 AND PUSH2 0x3AF JUMPI PUSH1 0x40 MLOAD PUSH4 0x1E4FBDF7 PUSH1 0xE0 SHL DUP2 MSTORE PUSH1 0x0 PUSH1 0x4 DUP3 ADD MSTORE PUSH1 0x24 ADD PUSH2 0x212 JUMP JUMPDEST PUSH2 0x3B8 DUP2 PUSH2 0x3E8 JUMP JUMPDEST POP JUMP JUMPDEST PUSH1 0x0 SLOAD PUSH1 0x1 PUSH1 0x1 PUSH1 0xA0 SHL SUB AND CALLER EQ PUSH2 0x2C0 JUMPI PUSH1 0x40 MLOAD PUSH4 0x118CDAA7 PUSH1 0xE0 SHL DUP2 MSTORE CALLER PUSH1 0x4 DUP3 ADD MSTORE PUSH1 0x24 ADD PUSH2 0x212 JUMP JUMPDEST PUSH1 0x0 DUP1 SLOAD PUSH1 0x1 PUSH1 0x1 PUSH1 0xA0 SHL SUB DUP4 DUP2 AND PUSH1 0x1 PUSH1 0x1 PUSH1 0xA0 SHL SUB NOT DUP4 AND DUP2 OR DUP5 SSTORE PUSH1 0x40 MLOAD SWAP2 SWAP1 SWAP3 AND SWAP3 DUP4 SWAP2 PUSH32 0x8BE0079C531659141344CD1FD0A4F28419497F9722A3DAAFE3B4186F6B6457E0 SWAP2 SWAP1 LOG3 POP POP JUMP JUMPDEST PUSH1 0x0 DUP1 PUSH1 0x40 DUP4 DUP6 SUB SLT ISZERO PUSH2 0x44B JUMPI PUSH1 0x0 DUP1 REVERT JUMPDEST POP POP DUP1 CALLDATALOAD SWAP3 PUSH1 0x20 SWAP1 SWAP2 ADD CALLDATALOAD SWAP2 POP JUMP JUMPDEST PUSH1 0x0 PUSH1 0x20 DUP3 DUP5 SUB SLT ISZERO PUSH2 0x46C JUMPI PUSH1 0x0 DUP1 REVERT JUMPDEST DUP2 CALLDATALOAD PUSH1 0x1 PUSH1 0x1 PUSH1 0xA0 SHL SUB DUP2 AND DUP2 EQ PUSH2 0x483 JUMPI PUSH1 0x0 DUP1 REVERT JUMPDEST SWAP4 SWAP3 POP POP POP JUMP JUMPDEST PUSH4 0x4E487B71 PUSH1 0xE0 SHL PUSH1 0x0 MSTORE PUSH1 0x11 PUSH1 0x4 MSTORE PUSH1 0x24 PUSH1 0x0 REVERT JUMPDEST DUP1 DUP3 ADD DUP1 DUP3 GT ISZERO PUSH2 0x4B3 JUMPI PUSH2 0x4B3 PUSH2 0x48A JUMP JUMPDEST SWAP3 SWAP2 POP POP JUMP JUMPDEST DUP1 DUP3 ADD DUP3 DUP2 SLT PUSH1 0x0 DUP4 SLT DUP1 ISZERO DUP3 AND DUP3 ISZERO DUP3 AND OR ISZERO PUSH2 0x4D9 JUMPI PUSH2 0x4D9 PUSH2 0x48A JUMP JUMPDEST POP POP SWAP3 SWAP2 POP POP JUMP JUMPDEST DUP2 DUP2 SUB PUSH1 0x0 DUP4 SLT DUP1 ISZERO DUP4 DUP4 SGT AND DUP4 DUP4 SLT DUP3 AND OR ISZERO PUSH2 0x501 JUMPI PUSH2 0x501 PUSH2 0x48A JUMP JUMPDEST POP SWAP3 SWAP2 POP POP JUMP JUMPDEST DUP1 DUP3 MUL PUSH1 0x0 DUP3 SLT PUSH1 0x1 PUSH1 0xFF SHL DUP5 EQ AND ISZERO PUSH2 0x524 JUMPI PUSH2 0x524 PUSH2 0x48A JUMP JUMPDEST DUP2 DUP2 SDIV DUP4 EQ DUP3 ISZERO OR PUSH2 0x4B3 JUMPI PUSH2 0x4B3 PUSH2 0x48A JUMP JUMPDEST PUSH1 0x0 DUP3 PUSH2 0x555 JUMPI PUSH4 0x4E487B71 PUSH1 0xE0 SHL PUSH1 0x0 MSTORE PUSH1 0x12 PUSH1 0x4 MSTORE PUSH1 0x24 PUSH1 0x0 REVERT JUMPDEST PUSH1 0x1 PUSH1 0xFF SHL DUP3 EQ PUSH1 0x0 NOT DUP5 EQ AND ISZERO PUSH2 0x56F JUMPI PUSH2 0x56F PUSH2 0x48A JUMP JUMPDEST POP SDIV SWAP1 JUMP INVALID LOG2 PUSH5 0x6970667358 0x22 SLT KECCAK256 0xD2 SELFDESTRUCT 0xE2 0xC9 TSTORE 0x4D 0x4F MUL 0x28 0xAE PUSH32 0xDE2E9F7EAADA2062ABC2572E15E9E07DB20DDB501F64736F6C63430008180033 "},"methodIdentifiers":{"FUNDING_INTERVAL()":"55efb287","RATE_FACTOR()":"7067e881","calculateFundingRate()":"a15b7934","cumulativeFunding()":"dc5f1ea9","getCumulativeFunding()":"9fd84dad","lastFundingBlock()":"a40f1e00","longOI()":"e1241209","owner()":"8da5cb5b","perpEngine()":"48ba4d2b","renounceOwnership()":"715018a6","setPerpEngine(address)":"b619daf7","shortOI()":"700581e9","transferOwnership(address)":"f2fde38b","updateOI(uint256,uint256)":"45b784e0"}}}}}