{
  "_format": "hh-sol-artifact-1",
  "contractName": "LiquidityPool",
  "sourceName": "contracts/LiquidityPool.sol",
  "abi": [
    {
      "inputs": [
        {
          "internalType": "address",
          "name": "_usdc",
          "type": "address"
        }
      ],
      "stateMutability": "nonpayable",
      "type": "constructor"
    },
    {
      "inputs": [
        {
          "internalType": "address",
          "name": "spender",
          "type": "address"
        },
        {
          "internalType": "uint256",
          "name": "allowance",
          "type": "uint256"
        },
        {
          "internalType": "uint256",
          "name": "needed",
          "type": "uint256"
        }
      ],
      "name": "ERC20InsufficientAllowance",
      "type": "error"
    },
    {
      "inputs": [
        {
          "internalType": "address",
          "name": "sender",
          "type": "address"
        },
        {
          "internalType": "uint256",
          "name": "balance",
          "type": "uint256"
        },
        {
          "internalType": "uint256",
          "name": "needed",
          "type": "uint256"
        }
      ],
      "name": "ERC20InsufficientBalance",
      "type": "error"
    },
    {
      "inputs": [
        {
          "internalType": "address",
          "name": "approver",
          "type": "address"
        }
      ],
      "name": "ERC20InvalidApprover",
      "type": "error"
    },
    {
      "inputs": [
        {
          "internalType": "address",
          "name": "receiver",
          "type": "address"
        }
      ],
      "name": "ERC20InvalidReceiver",
      "type": "error"
    },
    {
      "inputs": [
        {
          "internalType": "address",
          "name": "sender",
          "type": "address"
        }
      ],
      "name": "ERC20InvalidSender",
      "type": "error"
    },
    {
      "inputs": [
        {
          "internalType": "address",
          "name": "spender",
          "type": "address"
        }
      ],
      "name": "ERC20InvalidSpender",
      "type": "error"
    },
    {
      "inputs": [
        {
          "internalType": "address",
          "name": "owner",
          "type": "address"
        }
      ],
      "name": "OwnableInvalidOwner",
      "type": "error"
    },
    {
      "inputs": [
        {
          "internalType": "address",
          "name": "account",
          "type": "address"
        }
      ],
      "name": "OwnableUnauthorizedAccount",
      "type": "error"
    },
    {
      "anonymous": false,
      "inputs": [
        {
          "indexed": true,
          "internalType": "address",
          "name": "owner",
          "type": "address"
        },
        {
          "indexed": true,
          "internalType": "address",
          "name": "spender",
          "type": "address"
        },
        {
          "indexed": false,
          "internalType": "uint256",
          "name": "value",
          "type": "uint256"
        }
      ],
      "name": "Approval",
      "type": "event"
    },
    {
      "anonymous": false,
      "inputs": [
        {
          "indexed": true,
          "internalType": "address",
          "name": "user",
          "type": "address"
        },
        {
          "indexed": false,
          "internalType": "uint256",
          "name": "amount",
          "type": "uint256"
        },
        {
          "indexed": false,
          "internalType": "uint256",
          "name": "shares",
          "type": "uint256"
        }
      ],
      "name": "Deposit",
      "type": "event"
    },
    {
      "anonymous": false,
      "inputs": [
        {
          "indexed": true,
          "internalType": "address",
          "name": "previousOwner",
          "type": "address"
        },
        {
          "indexed": true,
          "internalType": "address",
          "name": "newOwner",
          "type": "address"
        }
      ],
      "name": "OwnershipTransferred",
      "type": "event"
    },
    {
      "anonymous": false,
      "inputs": [
        {
          "indexed": true,
          "internalType": "address",
          "name": "engine",
          "type": "address"
        }
      ],
      "name": "PerpEngineSet",
      "type": "event"
    },
    {
      "anonymous": false,
      "inputs": [
        {
          "indexed": true,
          "internalType": "address",
          "name": "from",
          "type": "address"
        },
        {
          "indexed": true,
          "internalType": "address",
          "name": "to",
          "type": "address"
        },
        {
          "indexed": false,
          "internalType": "uint256",
          "name": "value",
          "type": "uint256"
        }
      ],
      "name": "Transfer",
      "type": "event"
    },
    {
      "anonymous": false,
      "inputs": [
        {
          "indexed": true,
          "internalType": "address",
          "name": "user",
          "type": "address"
        },
        {
          "indexed": false,
          "internalType": "uint256",
          "name": "amount",
          "type": "uint256"
        },
        {
          "indexed": false,
          "internalType": "uint256",
          "name": "shares",
          "type": "uint256"
        }
      ],
      "name": "Withdraw",
      "type": "event"
    },
    {
      "inputs": [
        {
          "internalType": "address",
          "name": "owner",
          "type": "address"
        },
        {
          "internalType": "address",
          "name": "spender",
          "type": "address"
        }
      ],
      "name": "allowance",
      "outputs": [
        {
          "internalType": "uint256",
          "name": "",
          "type": "uint256"
        }
      ],
      "stateMutability": "view",
      "type": "function"
    },
    {
      "inputs": [
        {
          "internalType": "address",
          "name": "spender",
          "type": "address"
        },
        {
          "internalType": "uint256",
          "name": "value",
          "type": "uint256"
        }
      ],
      "name": "approve",
      "outputs": [
        {
          "internalType": "bool",
          "name": "",
          "type": "bool"
        }
      ],
      "stateMutability": "nonpayable",
      "type": "function"
    },
    {
      "inputs": [
        {
          "internalType": "address",
          "name": "account",
          "type": "address"
        }
      ],
      "name": "balanceOf",
      "outputs": [
        {
          "internalType": "uint256",
          "name": "",
          "type": "uint256"
        }
      ],
      "stateMutability": "view",
      "type": "function"
    },
    {
      "inputs": [
        {
          "internalType": "uint256",
          "name": "amount",
          "type": "uint256"
        }
      ],
      "name": "collectTraderLoss",
      "outputs": [],
      "stateMutability": "nonpayable",
      "type": "function"
    },
    {
      "inputs": [],
      "name": "decimals",
      "outputs": [
        {
          "internalType": "uint8",
          "name": "",
          "type": "uint8"
        }
      ],
      "stateMutability": "view",
      "type": "function"
    },
    {
      "inputs": [
        {
          "internalType": "uint256",
          "name": "amount",
          "type": "uint256"
        }
      ],
      "name": "deposit",
      "outputs": [
        {
          "internalType": "uint256",
          "name": "",
          "type": "uint256"
        }
      ],
      "stateMutability": "nonpayable",
      "type": "function"
    },
    {
      "inputs": [],
      "name": "name",
      "outputs": [
        {
          "internalType": "string",
          "name": "",
          "type": "string"
        }
      ],
      "stateMutability": "view",
      "type": "function"
    },
    {
      "inputs": [],
      "name": "owner",
      "outputs": [
        {
          "internalType": "address",
          "name": "",
          "type": "address"
        }
      ],
      "stateMutability": "view",
      "type": "function"
    },
    {
      "inputs": [
        {
          "internalType": "address",
          "name": "trader",
          "type": "address"
        },
        {
          "internalType": "uint256",
          "name": "amount",
          "type": "uint256"
        }
      ],
      "name": "payTrader",
      "outputs": [],
      "stateMutability": "nonpayable",
      "type": "function"
    },
    {
      "inputs": [],
      "name": "perpEngine",
      "outputs": [
        {
          "internalType": "address",
          "name": "",
          "type": "address"
        }
      ],
      "stateMutability": "view",
      "type": "function"
    },
    {
      "inputs": [],
      "name": "renounceOwnership",
      "outputs": [],
      "stateMutability": "nonpayable",
      "type": "function"
    },
    {
      "inputs": [
        {
          "internalType": "address",
          "name": "_perpEngine",
          "type": "address"
        }
      ],
      "name": "setPerpEngine",
      "outputs": [],
      "stateMutability": "nonpayable",
      "type": "function"
    },
    {
      "inputs": [],
      "name": "symbol",
      "outputs": [
        {
          "internalType": "string",
          "name": "",
          "type": "string"
        }
      ],
      "stateMutability": "view",
      "type": "function"
    },
    {
      "inputs": [],
      "name": "totalAssets",
      "outputs": [
        {
          "internalType": "uint256",
          "name": "",
          "type": "uint256"
        }
      ],
      "stateMutability": "view",
      "type": "function"
    },
    {
      "inputs": [],
      "name": "totalSupply",
      "outputs": [
        {
          "internalType": "uint256",
          "name": "",
          "type": "uint256"
        }
      ],
      "stateMutability": "view",
      "type": "function"
    },
    {
      "inputs": [
        {
          "internalType": "address",
          "name": "to",
          "type": "address"
        },
        {
          "internalType": "uint256",
          "name": "value",
          "type": "uint256"
        }
      ],
      "name": "transfer",
      "outputs": [
        {
          "internalType": "bool",
          "name": "",
          "type": "bool"
        }
      ],
      "stateMutability": "nonpayable",
      "type": "function"
    },
    {
      "inputs": [
        {
          "internalType": "address",
          "name": "from",
          "type": "address"
        },
        {
          "internalType": "address",
          "name": "to",
          "type": "address"
        },
        {
          "internalType": "uint256",
          "name": "value",
          "type": "uint256"
        }
      ],
      "name": "transferFrom",
      "outputs": [
        {
          "internalType": "bool",
          "name": "",
          "type": "bool"
        }
      ],
      "stateMutability": "nonpayable",
      "type": "function"
    },
    {
      "inputs": [
        {
          "internalType": "address",
          "name": "newOwner",
          "type": "address"
        }
      ],
      "name": "transferOwnership",
      "outputs": [],
      "stateMutability": "nonpayable",
      "type": "function"
    },
    {
      "inputs": [],
      "name": "usdc",
      "outputs": [
        {
          "internalType": "contract IERC20",
          "name": "",
          "type": "address"
        }
      ],
      "stateMutability": "view",
      "type": "function"
    },
    {
      "inputs": [
        {
          "internalType": "uint256",
          "name": "shares",
          "type": "uint256"
        }
      ],
      "name": "withdraw",
      "outputs": [
        {
          "internalType": "uint256",
          "name": "",
          "type": "uint256"
        }
      ],
      "stateMutability": "nonpayable",
      "type": "function"
    }
  ],
  "bytecode": "0x60806040523480156200001157600080fd5b50604051620012e0380380620012e083398101604081905262000034916200014c565b336040518060400160405280600c81526020016b4f504e204c5020536861726560a01b8152506040518060400160405280600381526020016206f4c560ec1b815250816003908162000087919062000225565b50600462000096828262000225565b5050506001600160a01b038116620000c857604051631e4fbdf760e01b81526000600482015260240160405180910390fd5b620000d381620000fa565b50600680546001600160a01b0319166001600160a01b0392909216919091179055620002f1565b600580546001600160a01b038381166001600160a01b0319831681179093556040519116919082907f8be0079c531659141344cd1fd0a4f28419497f9722a3daafe3b4186f6b6457e090600090a35050565b6000602082840312156200015f57600080fd5b81516001600160a01b03811681146200017757600080fd5b9392505050565b634e487b7160e01b600052604160045260246000fd5b600181811c90821680620001a957607f821691505b602082108103620001ca57634e487b7160e01b600052602260045260246000fd5b50919050565b601f82111562000220576000816000526020600020601f850160051c81016020861015620001fb5750805b601f850160051c820191505b818110156200021c5782815560010162000207565b5050505b505050565b81516001600160401b038111156200024157620002416200017e565b620002598162000252845462000194565b84620001d0565b602080601f831160018114620002915760008415620002785750858301515b600019600386901b1c1916600185901b1785556200021c565b600085815260208120601f198616915b82811015620002c257888601518255948401946001909101908401620002a1565b5085821015620002e15787850151600019600388901b60f8161c191681555b5050505050600190811b01905550565b610fdf80620003016000396000f3fe608060405234801561001057600080fd5b506004361061012b5760003560e01c806348ba4d2b116100ad578063a9059cbb11610071578063a9059cbb14610270578063b619daf714610283578063b6b55f2514610296578063dd62ed3e146102a9578063f2fde38b146102e257600080fd5b806348ba4d2b1461021357806370a0823114610226578063715018a61461024f5780638da5cb5b1461025757806395d89b411461026857600080fd5b80631e09c79e116100f45780631e09c79e146101a057806323b872dd146101b35780632e1a7d4d146101c6578063313ce567146101d95780633e413bee146101e857600080fd5b8062b473b81461013057806301e1d1141461014557806306fdde0314610160578063095ea7b31461017557806318160ddd14610198575b600080fd5b61014361013e366004610daf565b6102f5565b005b61014d610419565b6040519081526020015b60405180910390f35b61016861048b565b6040516101579190610dd9565b610188610183366004610daf565b61051d565b6040519015158152602001610157565b60025461014d565b6101436101ae366004610e28565b610537565b6101886101c1366004610e41565b610602565b61014d6101d4366004610e28565b610626565b60405160128152602001610157565b6006546101fb906001600160a01b031681565b6040516001600160a01b039091168152602001610157565b6007546101fb906001600160a01b031681565b61014d610234366004610e7d565b6001600160a01b031660009081526020819052604090205490565b6101436107b8565b6005546001600160a01b03166101fb565b6101686107cc565b61018861027e366004610daf565b6107db565b610143610291366004610e7d565b6107e9565b61014d6102a4366004610e28565b61083b565b61014d6102b7366004610e9f565b6001600160a01b03918216600090815260016020908152604080832093909416825291909152205490565b6101436102f0366004610e7d565b610980565b6007546001600160a01b031633146103465760405162461bcd60e51b815260206004820152600f60248201526e4f6e6c792050657270456e67696e6560881b60448201526064015b60405180910390fd5b8061034f610419565b101561039d5760405162461bcd60e51b815260206004820152601b60248201527f496e73756666696369656e7420706f6f6c206c69717569646974790000000000604482015260640161033d565b60065460405163a9059cbb60e01b81526001600160a01b038481166004830152602482018490529091169063a9059cbb906044016020604051808303816000875af11580156103f0573d6000803e3d6000fd5b505050506040513d601f19601f820116820180604052508101906104149190610ed2565b505050565b6006546040516370a0823160e01b81523060048201526000916001600160a01b0316906370a0823190602401602060405180830381865afa158015610462573d6000803e3d6000fd5b505050506040513d601f19601f820116820180604052508101906104869190610ef4565b905090565b60606003805461049a90610f0d565b80601f01602080910402602001604051908101604052809291908181526020018280546104c690610f0d565b80156105135780601f106104e857610100808354040283529160200191610513565b820191906000526020600020905b8154815290600101906020018083116104f657829003601f168201915b5050505050905090565b60003361052b8185856109be565b60019150505b92915050565b6007546001600160a01b031633146105835760405162461bcd60e51b815260206004820152600f60248201526e4f6e6c792050657270456e67696e6560881b604482015260640161033d565b6006546040516323b872dd60e01b8152336004820152306024820152604481018390526001600160a01b03909116906323b872dd906064016020604051808303816000875af11580156105da573d6000803e3d6000fd5b505050506040513d601f19601f820116820180604052508101906105fe9190610ed2565b5050565b6000336106108582856109cb565b61061b858585610a4a565b506001949350505050565b600080821161066c5760405162461bcd60e51b81526020600482015260126024820152710536861726573206d757374206265203e20360741b604482015260640161033d565b6000610676610419565b9050600061068360025490565b336000908152602081905260409020549091508411156106db5760405162461bcd60e51b8152602060048201526013602482015272496e73756666696369656e742073686172657360681b604482015260640161033d565b6000816106e88487610f5d565b6106f29190610f74565b90506106fe3386610aa9565b60065460405163a9059cbb60e01b8152336004820152602481018390526001600160a01b039091169063a9059cbb906044016020604051808303816000875af115801561074f573d6000803e3d6000fd5b505050506040513d601f19601f820116820180604052508101906107739190610ed2565b50604080518281526020810187905233917ff279e6a1f5e320cca91135676d9cb6e44ca8a08c0b88342bcdb1144f6511b56891015b60405180910390a2949350505050565b6107c0610adf565b6107ca6000610b0c565b565b60606004805461049a90610f0d565b60003361052b818585610a4a565b6107f1610adf565b600780546001600160a01b0319166001600160a01b0383169081179091556040517ffd111688e3686ea2821d45ddcfbee4df0c026b55840ef0165af173924e7bf68090600090a250565b60008082116108815760405162461bcd60e51b81526020600482015260126024820152710416d6f756e74206d757374206265203e20360741b604482015260640161033d565b600061088b610419565b9050600061089860025490565b6006546040516323b872dd60e01b8152336004820152306024820152604481018790529192506001600160a01b0316906323b872dd906064016020604051808303816000875af11580156108f0573d6000803e3d6000fd5b505050506040513d601f19601f820116820180604052508101906109149190610ed2565b5060008160000361092657508361093e565b826109318387610f5d565b61093b9190610f74565b90505b6109483382610b5e565b604080518681526020810183905233917f90890809c654f11d6e72a28fa60149770a0d11ec6c92319d6ceb2bb0a4ea1a1591016107a8565b610988610adf565b6001600160a01b0381166109b257604051631e4fbdf760e01b81526000600482015260240161033d565b6109bb81610b0c565b50565b6104148383836001610b94565b6001600160a01b03838116600090815260016020908152604080832093861683529290522054600019811015610a445781811015610a3557604051637dc7a0d960e11b81526001600160a01b0384166004820152602481018290526044810183905260640161033d565b610a4484848484036000610b94565b50505050565b6001600160a01b038316610a7457604051634b637e8f60e11b81526000600482015260240161033d565b6001600160a01b038216610a9e5760405163ec442f0560e01b81526000600482015260240161033d565b610414838383610c69565b6001600160a01b038216610ad357604051634b637e8f60e11b81526000600482015260240161033d565b6105fe82600083610c69565b6005546001600160a01b031633146107ca5760405163118cdaa760e01b815233600482015260240161033d565b600580546001600160a01b038381166001600160a01b0319831681179093556040519116919082907f8be0079c531659141344cd1fd0a4f28419497f9722a3daafe3b4186f6b6457e090600090a35050565b6001600160a01b038216610b885760405163ec442f0560e01b81526000600482015260240161033d565b6105fe60008383610c69565b6001600160a01b038416610bbe5760405163e602df0560e01b81526000600482015260240161033d565b6001600160a01b038316610be857604051634a1406b160e11b81526000600482015260240161033d565b6001600160a01b0380851660009081526001602090815260408083209387168352929052208290558015610a4457826001600160a01b0316846001600160a01b03167f8c5be1e5ebec7d5bd14f71427d1e84f3dd0314c0f7b2291e5b200ac8c7c3b92584604051610c5b91815260200190565b60405180910390a350505050565b6001600160a01b038316610c94578060026000828254610c899190610f96565b90915550610d069050565b6001600160a01b03831660009081526020819052604090205481811015610ce75760405163391434e360e21b81526001600160a01b0385166004820152602481018290526044810183905260640161033d565b6001600160a01b03841660009081526020819052604090209082900390555b6001600160a01b038216610d2257600280548290039055610d41565b6001600160a01b03821660009081526020819052604090208054820190555b816001600160a01b0316836001600160a01b03167fddf252ad1be2c89b69c2b068fc378daa952ba7f163c4a11628f55a4df523b3ef83604051610d8691815260200190565b60405180910390a3505050565b80356001600160a01b0381168114610daa57600080fd5b919050565b60008060408385031215610dc257600080fd5b610dcb83610d93565b946020939093013593505050565b60006020808352835180602085015260005b81811015610e0757858101830151858201604001528201610deb565b506000604082860101526040601f19601f8301168501019250505092915050565b600060208284031215610e3a57600080fd5b5035919050565b600080600060608486031215610e5657600080fd5b610e5f84610d93565b9250610e6d60208501610d93565b9150604084013590509250925092565b600060208284031215610e8f57600080fd5b610e9882610d93565b9392505050565b60008060408385031215610eb257600080fd5b610ebb83610d93565b9150610ec960208401610d93565b90509250929050565b600060208284031215610ee457600080fd5b81518015158114610e9857600080fd5b600060208284031215610f0657600080fd5b5051919050565b600181811c90821680610f2157607f821691505b602082108103610f4157634e487b7160e01b600052602260045260246000fd5b50919050565b634e487b7160e01b600052601160045260246000fd5b808202811582820484141761053157610531610f47565b600082610f9157634e487b7160e01b600052601260045260246000fd5b500490565b8082018082111561053157610531610f4756fea2646970667358221220d44d93bb8b8050606b471a17b146741cbd544592aef9f5b04db2db8156e7809264736f6c63430008180033",
  "linkReferences": {},
  "deployedLinkReferences": {}
}