{
  "_format": "hh-sol-artifact-1",
  "contractName": "FundingRate",
  "sourceName": "contracts/FundingRate.sol",
  "abi": [
    {
      "inputs": [],
      "stateMutability": "nonpayable",
      "type": "constructor"
    },
    {
      "inputs": [
        {
          "internalType": "address",
          "name": "owner",
          "type": "address"
        }
      ],
      "name": "OwnableInvalidOwner",
      "type": "error"
    },
    {
      "inputs": [
        {
          "internalType": "address",
          "name": "account",
          "type": "address"
        }
      ],
      "name": "OwnableUnauthorizedAccount",
      "type": "error"
    },
    {
      "anonymous": false,
      "inputs": [
        {
          "indexed": false,
          "internalType": "int256",
          "name": "fundingRate",
          "type": "int256"
        },
        {
          "indexed": false,
          "internalType": "int256",
          "name": "cumulativeFunding",
          "type": "int256"
        },
        {
          "indexed": false,
          "internalType": "uint256",
          "name": "blockNumber",
          "type": "uint256"
        }
      ],
      "name": "FundingUpdated",
      "type": "event"
    },
    {
      "anonymous": false,
      "inputs": [
        {
          "indexed": true,
          "internalType": "address",
          "name": "previousOwner",
          "type": "address"
        },
        {
          "indexed": true,
          "internalType": "address",
          "name": "newOwner",
          "type": "address"
        }
      ],
      "name": "OwnershipTransferred",
      "type": "event"
    },
    {
      "anonymous": false,
      "inputs": [
        {
          "indexed": true,
          "internalType": "address",
          "name": "engine",
          "type": "address"
        }
      ],
      "name": "PerpEngineSet",
      "type": "event"
    },
    {
      "inputs": [],
      "name": "FUNDING_INTERVAL",
      "outputs": [
        {
          "internalType": "uint256",
          "name": "",
          "type": "uint256"
        }
      ],
      "stateMutability": "view",
      "type": "function"
    },
    {
      "inputs": [],
      "name": "RATE_FACTOR",
      "outputs": [
        {
          "internalType": "int256",
          "name": "",
          "type": "int256"
        }
      ],
      "stateMutability": "view",
      "type": "function"
    },
    {
      "inputs": [],
      "name": "calculateFundingRate",
      "outputs": [
        {
          "internalType": "int256",
          "name": "",
          "type": "int256"
        }
      ],
      "stateMutability": "view",
      "type": "function"
    },
    {
      "inputs": [],
      "name": "cumulativeFunding",
      "outputs": [
        {
          "internalType": "int256",
          "name": "",
          "type": "int256"
        }
      ],
      "stateMutability": "view",
      "type": "function"
    },
    {
      "inputs": [],
      "name": "getCumulativeFunding",
      "outputs": [
        {
          "internalType": "int256",
          "name": "",
          "type": "int256"
        }
      ],
      "stateMutability": "view",
      "type": "function"
    },
    {
      "inputs": [],
      "name": "lastFundingBlock",
      "outputs": [
        {
          "internalType": "uint256",
          "name": "",
          "type": "uint256"
        }
      ],
      "stateMutability": "view",
      "type": "function"
    },
    {
      "inputs": [],
      "name": "longOI",
      "outputs": [
        {
          "internalType": "uint256",
          "name": "",
          "type": "uint256"
        }
      ],
      "stateMutability": "view",
      "type": "function"
    },
    {
      "inputs": [],
      "name": "owner",
      "outputs": [
        {
          "internalType": "address",
          "name": "",
          "type": "address"
        }
      ],
      "stateMutability": "view",
      "type": "function"
    },
    {
      "inputs": [],
      "name": "perpEngine",
      "outputs": [
        {
          "internalType": "address",
          "name": "",
          "type": "address"
        }
      ],
      "stateMutability": "view",
      "type": "function"
    },
    {
      "inputs": [],
      "name": "renounceOwnership",
      "outputs": [],
      "stateMutability": "nonpayable",
      "type": "function"
    },
    {
      "inputs": [
        {
          "internalType": "address",
          "name": "_perpEngine",
          "type": "address"
        }
      ],
      "name": "setPerpEngine",
      "outputs": [],
      "stateMutability": "nonpayable",
      "type": "function"
    },
    {
      "inputs": [],
      "name": "shortOI",
      "outputs": [
        {
          "internalType": "uint256",
          "name": "",
          "type": "uint256"
        }
      ],
      "stateMutability": "view",
      "type": "function"
    },
    {
      "inputs": [
        {
          "internalType": "address",
          "name": "newOwner",
          "type": "address"
        }
      ],
      "name": "transferOwnership",
      "outputs": [],
      "stateMutability": "nonpayable",
      "type": "function"
    },
    {
      "inputs": [
        {
          "internalType": "uint256",
          "name": "_longOI",
          "type": "uint256"
        },
        {
          "internalType": "uint256",
          "name": "_shortOI",
          "type": "uint256"
        }
      ],
      "name": "updateOI",
      "outputs": [],
      "stateMutability": "nonpayable",
      "type": "function"
    }
  ],
  "bytecode": "0x608060405234801561001057600080fd5b50338061003757604051631e4fbdf760e01b81526000600482015260240160405180910390fd5b6100408161004a565b504360055561009a565b600080546001600160a01b038381166001600160a01b0319831681178455604051919092169283917f8be0079c531659141344cd1fd0a4f28419497f9722a3daafe3b4186f6b6457e09190a35050565b6105aa806100a96000396000f3fe608060405234801561001057600080fd5b50600436106100ea5760003560e01c80639fd84dad1161008c578063b619daf711610066578063b619daf714610192578063dc5f1ea9146101a5578063e1241209146101ae578063f2fde38b146101b757600080fd5b80639fd84dad14610179578063a15b793414610181578063a40f1e001461018957600080fd5b8063700581e9116100c8578063700581e91461014a5780637067e88114610153578063715018a6146101605780638da5cb5b1461016857600080fd5b806345b784e0146100ef57806348ba4d2b1461010457806355efb28714610134575b600080fd5b6101026100fd366004610438565b6101ca565b005b600154610117906001600160a01b031681565b6040516001600160a01b0390911681526020015b60405180910390f35b61013c606481565b60405190815260200161012b565b61013c60035481565b61013c655af3107a400081565b6101026102ae565b6000546001600160a01b0316610117565b60045461013c565b61013c6102c2565b61013c60055481565b6101026101a036600461045a565b61032b565b61013c60045481565b61013c60025481565b6101026101c536600461045a565b61037d565b6001546001600160a01b0316331461021b5760405162461bcd60e51b815260206004820152600f60248201526e4f6e6c792050657270456e67696e6560881b60448201526064015b60405180910390fd5b60028290556003819055600554610234906064906104a0565b43106102aa5760006102446102c2565b9050806004600082825461025891906104b9565b90915550504360058190556004546040805184815260208101929092528101919091527fcb97491ef899ceb55f942df3513dc2c88ec9024b12fa8d525fff13dbc72895ab9060600160405180910390a1505b5050565b6102b66103bb565b6102c060006103e8565b565b60006003546002546102d491906104a0565b6000036102e15750600090565b60006003546002546102f391906104e1565b9050600060035460025461030791906104a0565b90508061031a655af3107a400084610508565b6103249190610538565b9250505090565b6103336103bb565b600180546001600160a01b0319166001600160a01b0383169081179091556040517ffd111688e3686ea2821d45ddcfbee4df0c026b55840ef0165af173924e7bf68090600090a250565b6103856103bb565b6001600160a01b0381166103af57604051631e4fbdf760e01b815260006004820152602401610212565b6103b8816103e8565b50565b6000546001600160a01b031633146102c05760405163118cdaa760e01b8152336004820152602401610212565b600080546001600160a01b038381166001600160a01b0319831681178455604051919092169283917f8be0079c531659141344cd1fd0a4f28419497f9722a3daafe3b4186f6b6457e09190a35050565b6000806040838503121561044b57600080fd5b50508035926020909101359150565b60006020828403121561046c57600080fd5b81356001600160a01b038116811461048357600080fd5b9392505050565b634e487b7160e01b600052601160045260246000fd5b808201808211156104b3576104b361048a565b92915050565b80820182811260008312801582168215821617156104d9576104d961048a565b505092915050565b81810360008312801583831316838312821617156105015761050161048a565b5092915050565b80820260008212600160ff1b841416156105245761052461048a565b81810583148215176104b3576104b361048a565b60008261055557634e487b7160e01b600052601260045260246000fd5b600160ff1b82146000198414161561056f5761056f61048a565b50059056fea2646970667358221220d2ffe2c95d4d4f0228ae7fde2e9f7eaada2062abc2572e15e9e07db20ddb501f64736f6c63430008180033",
  "linkReferences": {},
  "deployedLinkReferences": {}
}