{
  "_format": "hh-sol-artifact-1",
  "contractName": "PerpEngine",
  "sourceName": "contracts/PerpEngine.sol",
  "abi": [
    {
      "inputs": [
        {
          "internalType": "address",
          "name": "_usdc",
          "type": "address"
        },
        {
          "internalType": "address",
          "name": "_priceFeed",
          "type": "address"
        },
        {
          "internalType": "address",
          "name": "_liquidityPool",
          "type": "address"
        },
        {
          "internalType": "address",
          "name": "_insuranceFund",
          "type": "address"
        },
        {
          "internalType": "address",
          "name": "_fundingRate",
          "type": "address"
        }
      ],
      "stateMutability": "nonpayable",
      "type": "constructor"
    },
    {
      "inputs": [
        {
          "internalType": "address",
          "name": "owner",
          "type": "address"
        }
      ],
      "name": "OwnableInvalidOwner",
      "type": "error"
    },
    {
      "inputs": [
        {
          "internalType": "address",
          "name": "account",
          "type": "address"
        }
      ],
      "name": "OwnableUnauthorizedAccount",
      "type": "error"
    },
    {
      "anonymous": false,
      "inputs": [
        {
          "indexed": true,
          "internalType": "uint256",
          "name": "positionId",
          "type": "uint256"
        },
        {
          "indexed": true,
          "internalType": "address",
          "name": "trader",
          "type": "address"
        },
        {
          "indexed": false,
          "internalType": "uint256",
          "name": "amount",
          "type": "uint256"
        }
      ],
      "name": "MarginAdded",
      "type": "event"
    },
    {
      "anonymous": false,
      "inputs": [
        {
          "indexed": true,
          "internalType": "address",
          "name": "previousOwner",
          "type": "address"
        },
        {
          "indexed": true,
          "internalType": "address",
          "name": "newOwner",
          "type": "address"
        }
      ],
      "name": "OwnershipTransferred",
      "type": "event"
    },
    {
      "anonymous": false,
      "inputs": [
        {
          "indexed": true,
          "internalType": "uint256",
          "name": "positionId",
          "type": "uint256"
        },
        {
          "indexed": true,
          "internalType": "address",
          "name": "trader",
          "type": "address"
        },
        {
          "indexed": false,
          "internalType": "uint256",
          "name": "payout",
          "type": "uint256"
        },
        {
          "indexed": false,
          "internalType": "int256",
          "name": "pnl",
          "type": "int256"
        },
        {
          "indexed": false,
          "internalType": "uint256",
          "name": "exitPrice",
          "type": "uint256"
        }
      ],
      "name": "PositionClosed",
      "type": "event"
    },
    {
      "anonymous": false,
      "inputs": [
        {
          "indexed": true,
          "internalType": "uint256",
          "name": "positionId",
          "type": "uint256"
        },
        {
          "indexed": true,
          "internalType": "address",
          "name": "trader",
          "type": "address"
        },
        {
          "indexed": true,
          "internalType": "address",
          "name": "liquidator",
          "type": "address"
        },
        {
          "indexed": false,
          "internalType": "uint256",
          "name": "payout",
          "type": "uint256"
        },
        {
          "indexed": false,
          "internalType": "int256",
          "name": "pnl",
          "type": "int256"
        }
      ],
      "name": "PositionLiquidated",
      "type": "event"
    },
    {
      "anonymous": false,
      "inputs": [
        {
          "indexed": true,
          "internalType": "uint256",
          "name": "positionId",
          "type": "uint256"
        },
        {
          "indexed": true,
          "internalType": "address",
          "name": "trader",
          "type": "address"
        },
        {
          "indexed": false,
          "internalType": "bool",
          "name": "isLong",
          "type": "bool"
        },
        {
          "indexed": false,
          "internalType": "uint256",
          "name": "sizeUSDC",
          "type": "uint256"
        },
        {
          "indexed": false,
          "internalType": "uint256",
          "name": "leverage",
          "type": "uint256"
        },
        {
          "indexed": false,
          "internalType": "uint256",
          "name": "entryPrice",
          "type": "uint256"
        }
      ],
      "name": "PositionOpened",
      "type": "event"
    },
    {
      "inputs": [],
      "name": "FEE_BPS",
      "outputs": [
        {
          "internalType": "uint256",
          "name": "",
          "type": "uint256"
        }
      ],
      "stateMutability": "view",
      "type": "function"
    },
    {
      "inputs": [],
      "name": "MAINTENANCE_MARGIN_BPS",
      "outputs": [
        {
          "internalType": "uint256",
          "name": "",
          "type": "uint256"
        }
      ],
      "stateMutability": "view",
      "type": "function"
    },
    {
      "inputs": [],
      "name": "MAX_LEVERAGE",
      "outputs": [
        {
          "internalType": "uint256",
          "name": "",
          "type": "uint256"
        }
      ],
      "stateMutability": "view",
      "type": "function"
    },
    {
      "inputs": [],
      "name": "MIN_LEVERAGE",
      "outputs": [
        {
          "internalType": "uint256",
          "name": "",
          "type": "uint256"
        }
      ],
      "stateMutability": "view",
      "type": "function"
    },
    {
      "inputs": [
        {
          "internalType": "uint256",
          "name": "positionId",
          "type": "uint256"
        },
        {
          "internalType": "uint256",
          "name": "amount",
          "type": "uint256"
        }
      ],
      "name": "addMargin",
      "outputs": [],
      "stateMutability": "nonpayable",
      "type": "function"
    },
    {
      "inputs": [
        {
          "internalType": "uint256",
          "name": "positionId",
          "type": "uint256"
        }
      ],
      "name": "closePosition",
      "outputs": [],
      "stateMutability": "nonpayable",
      "type": "function"
    },
    {
      "inputs": [],
      "name": "fundingRateContract",
      "outputs": [
        {
          "internalType": "contract FundingRate",
          "name": "",
          "type": "address"
        }
      ],
      "stateMutability": "view",
      "type": "function"
    },
    {
      "inputs": [
        {
          "internalType": "uint256",
          "name": "positionId",
          "type": "uint256"
        }
      ],
      "name": "getPositionPnL",
      "outputs": [
        {
          "internalType": "int256",
          "name": "pnl",
          "type": "int256"
        },
        {
          "internalType": "int256",
          "name": "fundingAccrued",
          "type": "int256"
        },
        {
          "internalType": "uint256",
          "name": "currentPrice",
          "type": "uint256"
        },
        {
          "internalType": "bool",
          "name": "isLiquidatable",
          "type": "bool"
        }
      ],
      "stateMutability": "view",
      "type": "function"
    },
    {
      "inputs": [
        {
          "internalType": "address",
          "name": "user",
          "type": "address"
        }
      ],
      "name": "getUserPositions",
      "outputs": [
        {
          "internalType": "uint256[]",
          "name": "",
          "type": "uint256[]"
        }
      ],
      "stateMutability": "view",
      "type": "function"
    },
    {
      "inputs": [],
      "name": "insuranceFund",
      "outputs": [
        {
          "internalType": "contract InsuranceFund",
          "name": "",
          "type": "address"
        }
      ],
      "stateMutability": "view",
      "type": "function"
    },
    {
      "inputs": [
        {
          "internalType": "uint256",
          "name": "positionId",
          "type": "uint256"
        }
      ],
      "name": "liquidate",
      "outputs": [],
      "stateMutability": "nonpayable",
      "type": "function"
    },
    {
      "inputs": [],
      "name": "liquidityPool",
      "outputs": [
        {
          "internalType": "contract LiquidityPool",
          "name": "",
          "type": "address"
        }
      ],
      "stateMutability": "view",
      "type": "function"
    },
    {
      "inputs": [],
      "name": "longOI",
      "outputs": [
        {
          "internalType": "uint256",
          "name": "",
          "type": "uint256"
        }
      ],
      "stateMutability": "view",
      "type": "function"
    },
    {
      "inputs": [
        {
          "internalType": "bool",
          "name": "isLong",
          "type": "bool"
        },
        {
          "internalType": "uint256",
          "name": "sizeUSDC",
          "type": "uint256"
        },
        {
          "internalType": "uint256",
          "name": "leverage",
          "type": "uint256"
        }
      ],
      "name": "openPosition",
      "outputs": [
        {
          "internalType": "uint256",
          "name": "",
          "type": "uint256"
        }
      ],
      "stateMutability": "nonpayable",
      "type": "function"
    },
    {
      "inputs": [],
      "name": "owner",
      "outputs": [
        {
          "internalType": "address",
          "name": "",
          "type": "address"
        }
      ],
      "stateMutability": "view",
      "type": "function"
    },
    {
      "inputs": [
        {
          "internalType": "uint256",
          "name": "",
          "type": "uint256"
        }
      ],
      "name": "positions",
      "outputs": [
        {
          "internalType": "uint256",
          "name": "id",
          "type": "uint256"
        },
        {
          "internalType": "address",
          "name": "trader",
          "type": "address"
        },
        {
          "internalType": "bool",
          "name": "isLong",
          "type": "bool"
        },
        {
          "internalType": "uint256",
          "name": "sizeUSDC",
          "type": "uint256"
        },
        {
          "internalType": "uint256",
          "name": "leverage",
          "type": "uint256"
        },
        {
          "internalType": "uint256",
          "name": "margin",
          "type": "uint256"
        },
        {
          "internalType": "uint256",
          "name": "entryPrice",
          "type": "uint256"
        },
        {
          "internalType": "int256",
          "name": "entryFunding",
          "type": "int256"
        },
        {
          "internalType": "bool",
          "name": "isActive",
          "type": "bool"
        }
      ],
      "stateMutability": "view",
      "type": "function"
    },
    {
      "inputs": [],
      "name": "positionsCount",
      "outputs": [
        {
          "internalType": "uint256",
          "name": "",
          "type": "uint256"
        }
      ],
      "stateMutability": "view",
      "type": "function"
    },
    {
      "inputs": [],
      "name": "priceFeed",
      "outputs": [
        {
          "internalType": "contract MockPriceFeed",
          "name": "",
          "type": "address"
        }
      ],
      "stateMutability": "view",
      "type": "function"
    },
    {
      "inputs": [],
      "name": "renounceOwnership",
      "outputs": [],
      "stateMutability": "nonpayable",
      "type": "function"
    },
    {
      "inputs": [],
      "name": "shortOI",
      "outputs": [
        {
          "internalType": "uint256",
          "name": "",
          "type": "uint256"
        }
      ],
      "stateMutability": "view",
      "type": "function"
    },
    {
      "inputs": [
        {
          "internalType": "address",
          "name": "newOwner",
          "type": "address"
        }
      ],
      "name": "transferOwnership",
      "outputs": [],
      "stateMutability": "nonpayable",
      "type": "function"
    },
    {
      "inputs": [],
      "name": "usdc",
      "outputs": [
        {
          "internalType": "contract MockUSDC",
          "name": "",
          "type": "address"
        }
      ],
      "stateMutability": "view",
      "type": "function"
    },
    {
      "inputs": [
        {
          "internalType": "address",
          "name": "",
          "type": "address"
        },
        {
          "internalType": "uint256",
          "name": "",
          "type": "uint256"
        }
      ],
      "name": "userPositions",
      "outputs": [
        {
          "internalType": "uint256",
          "name": "",
          "type": "uint256"
        }
      ],
      "stateMutability": "view",
      "type": "function"
    }
  ],
  "bytecode": "0x60806040523480156200001157600080fd5b50604051620025ab380380620025ab833981016040819052620000349162000137565b33806200005b57604051631e4fbdf760e01b81526000600482015260240160405180910390fd5b6200006681620000ca565b50600180546001600160a01b03199081166001600160a01b03978816179091556002805482169587169590951790945560038054851693861693909317909255600480548416918516919091179055600580549092169216919091179055620001a7565b600080546001600160a01b038381166001600160a01b0319831681178455604051919092169283917f8be0079c531659141344cd1fd0a4f28419497f9722a3daafe3b4186f6b6457e09190a35050565b80516001600160a01b03811681146200013257600080fd5b919050565b600080600080600060a086880312156200015057600080fd5b6200015b866200011a565b94506200016b602087016200011a565b93506200017b604087016200011a565b92506200018b606087016200011a565b91506200019b608087016200011a565b90509295509295909350565b6123f480620001b76000396000f3fe608060405234801561001057600080fd5b506004361061014d5760003560e01c8063741bef1a116100c3578063b79023031161007c578063b79023031461035c578063bf333f2c14610338578063d41194b81461036f578063e124120914610382578063e32557311461038b578063f2fde38b1461039e57600080fd5b8063741bef1a146102555780638da5cb5b1461026857806399fbab88146102795780639b45ec9714610338578063a126d60114610340578063aeadb8e01461035357600080fd5b80635838bff7116101155780635838bff7146101e05780635e1b4d99146101e9578063665a11ca146101fc578063676975261461020f578063700581e914610244578063715018a61461024d57600080fd5b80630c6402bc146101525780632a6bc2dd1461018257806334c1557d146101a25780633e413bee146101b8578063415f1240146101cb575b600080fd5b600554610165906001600160a01b031681565b6040516001600160a01b0390911681526020015b60405180910390f35b6101956101903660046120cf565b6103b1565b60405161017991906120f1565b6101aa600281565b604051908152602001610179565b600154610165906001600160a01b031681565b6101de6101d9366004612135565b61041d565b005b6101aa6103e881565b6101aa6101f736600461214e565b610b5c565b600354610165906001600160a01b031681565b61022261021d366004612135565b610b8d565b6040805194855260208501939093529183015215156060820152608001610179565b6101aa600a5481565b6101de610e57565b600254610165906001600160a01b031681565b6000546001600160a01b0316610165565b6102e4610287366004612135565b60076020819052600091825260409091208054600182015460028301546003840154600485015460058601546006870154969097015494966001600160a01b03851696600160a01b90950460ff9081169694959394929391921689565b60408051998a526001600160a01b0390981660208a0152951515968801969096526060870193909352608086019190915260a085015260c084015260e0830191909152151561010082015261012001610179565b6101aa600a81565b6101de61034e366004612135565b610e6b565b6101aa60065481565b600454610165906001600160a01b031681565b6101de61037d366004612178565b61169b565b6101aa60095481565b6101aa6103993660046121a8565b6118e3565b6101de6103ac3660046120cf565b611ff8565b6001600160a01b03811660009081526008602090815260409182902080548351818402810184019094528084526060939283018282801561041157602002820191906000526020600020905b8154815260200190600101908083116103fd575b50505050509050919050565b60008181526007602081905260409091209081015460ff1661045a5760405162461bcd60e51b8152600401610451906121dd565b60405180910390fd5b600080600061046885610b8d565b93509350509250806104bc5760405162461bcd60e51b815260206004820152601960248201527f506f736974696f6e206e6f74206c6971756964617461626c65000000000000006044820152606401610451565b60078401805460ff191690556001840154600160a01b900460ff16156104fd578360020154600960008282546104f29190612220565b909155506105199050565b8360020154600a60008282546105139190612220565b90915550505b600554600954600a5460405163022dbc2760e51b8152600481019290925260248201526001600160a01b03909116906345b784e090604401600060405180830381600087803b15801561056b57600080fd5b505af115801561057f573d6000803e3d6000fd5b5050505060008385600401546105959190612239565b905060008082131561071b5760006105ae600284612277565b60015460405163a9059cbb60e01b81529193508392506001600160a01b03169063a9059cbb906105e4903390859060040161228b565b6020604051808303816000875af1158015610603573d6000803e3d6000fd5b505050506040513d601f19601f8201168201806040525081019061062791906122a4565b50600081886004015461063a9190612220565b60015460035460405163095ea7b360e01b81529293506001600160a01b039182169263095ea7b392610672921690859060040161228b565b6020604051808303816000875af1158015610691573d6000803e3d6000fd5b505050506040513d601f19601f820116820180604052508101906106b591906122a4565b50600354604051630f04e3cf60e11b8152600481018390526001600160a01b0390911690631e09c79e90602401600060405180830381600087803b1580156106fc57600080fd5b505af1158015610710573d6000803e3d6000fd5b505050505050610b07565b6000610726836122c1565b6001546003546004808b015460405163095ea7b360e01b81529495506001600160a01b039384169463095ea7b3946107609416920161228b565b6020604051808303816000875af115801561077f573d6000803e3d6000fd5b505050506040513d601f19601f820116820180604052508101906107a391906122a4565b50600354600488810154604051630f04e3cf60e11b8152918201526001600160a01b0390911690631e09c79e90602401600060405180830381600087803b1580156107ed57600080fd5b505af1158015610801573d6000803e3d6000fd5b50506004805460018b0154604051630b37bac560e11b81526001600160a01b03928316955063166f758a945061083e93919092169186910161228b565b600060405180830381600087803b15801561085857600080fd5b505af115801561086c573d6000803e3d6000fd5b50506001546003546040516370a0823160e01b81523060048201526001600160a01b03928316945063095ea7b39350911690849084906370a0823190602401602060405180830381865afa1580156108c8573d6000803e3d6000fd5b505050506040513d601f19601f820116820180604052508101906108ec91906122dd565b106108f75783610963565b6001546040516370a0823160e01b81523060048201526001600160a01b03909116906370a0823190602401602060405180830381865afa15801561093f573d6000803e3d6000fd5b505050506040513d601f19601f8201168201806040525081019061096391906122dd565b6040518363ffffffff1660e01b815260040161098092919061228b565b6020604051808303816000875af115801561099f573d6000803e3d6000fd5b505050506040513d601f19601f820116820180604052508101906109c391906122a4565b506003546001546040516370a0823160e01b81523060048201526001600160a01b0392831692631e09c79e9285929116906370a0823190602401602060405180830381865afa158015610a1a573d6000803e3d6000fd5b505050506040513d601f19601f82011682018060405250810190610a3e91906122dd565b10610a495782610ab5565b6001546040516370a0823160e01b81523060048201526001600160a01b03909116906370a0823190602401602060405180830381865afa158015610a91573d6000803e3d6000fd5b505050506040513d601f19601f82011682018060405250810190610ab591906122dd565b6040518263ffffffff1660e01b8152600401610ad391815260200190565b600060405180830381600087803b158015610aed57600080fd5b505af1158015610b01573d6000803e3d6000fd5b50505050505b6001860154604080518381526020810188905233926001600160a01b0316918a917f426c5c452ac32455de2c2224d3eb01554e4fd9cadcb18819b89314e1f4f44b98910160405180910390a450505050505050565b60086020528160005260406000208181548110610b7857600080fd5b90600052602060002001600091509150505481565b60008181526007602081905260408220908101548291829182919060ff16610bc75760405162461bcd60e51b8152600401610451906121dd565b600260009054906101000a90046001600160a01b03166001600160a01b03166398d5fdca6040518163ffffffff1660e01b8152600401602060405180830381865afa158015610c1a573d6000803e3d6000fd5b505050506040513d601f19601f82011682018060405250810190610c3e91906122dd565b6001820154909350600090600160a01b900460ff1615610cc35781600501548410610c92576005820154610c728186612220565b8360020154610c8191906122f6565b610c8b9190612277565b9050610d11565b6005820154610ca18582612220565b8360020154610cb091906122f6565b610cba9190612277565b610c8b906122c1565b83826005015410610cdd576005820154610c728582612220565b6005820154610cec8186612220565b8360020154610cfb91906122f6565b610d059190612277565b610d0e906122c1565b90505b60055460408051639fd84dad60e01b815290516000926001600160a01b031691639fd84dad9160048083019260209291908290030181865afa158015610d5b573d6000803e3d6000fd5b505050506040513d601f19601f82011682018060405250810190610d7f91906122dd565b90506000836006015482610d93919061230d565b6001850154909150600160a01b900460ff1615610dd457670de0b6b3a7640000818560020154610dc39190612334565b610dcd9190612364565b9650610e03565b670de0b6b3a7640000818560020154610ded9190612334565b610df6906122c1565b610e009190612364565b96505b610e0d878461230d565b97506000888560040154610e219190612239565b905060006127106103e88760040154610e3a91906122f6565b610e449190612277565b999b989a50969812159695505050505050565b610e5f612036565b610e696000612063565b565b60008181526007602081905260409091209081015460ff16610e9f5760405162461bcd60e51b8152600401610451906121dd565b60018101546001600160a01b03163314610eec5760405162461bcd60e51b815260206004820152600e60248201526d2737ba103a3432903a3930b232b960911b6044820152606401610451565b600080610ef884610b8d565b5060078601805460ff191690556001860154929450925050600160a01b900460ff1615610f4057826002015460096000828254610f359190612220565b90915550610f5c9050565b8260020154600a6000828254610f569190612220565b90915550505b600554600954600a5460405163022dbc2760e51b8152600481019290925260248201526001600160a01b03909116906345b784e090604401600060405180830381600087803b158015610fae57600080fd5b505af1158015610fc2573d6000803e3d6000fd5b5050505060008083126110cf5760048401548390610fe1908290612392565b600180549087015460048089015460405163a9059cbb60e01b81529496506001600160a01b039384169463a9059cbb9461101d9416920161228b565b6020604051808303816000875af115801561103c573d6000803e3d6000fd5b505050506040513d601f19601f8201168201806040525081019061106091906122a4565b50600354600186015460405162168e7760e31b81526001600160a01b039283169262b473b89261109792911690859060040161228b565b600060405180830381600087803b1580156110b157600080fd5b505af11580156110c5573d6000803e3d6000fd5b505050505061164f565b60006110da846122c1565b90508460040154811015611253578085600401546110f89190612220565b600180549087015460405163a9059cbb60e01b81529294506001600160a01b039182169263a9059cbb92611132921690869060040161228b565b6020604051808303816000875af1158015611151573d6000803e3d6000fd5b505050506040513d601f19601f8201168201806040525081019061117591906122a4565b5060015460035460405163095ea7b360e01b81526001600160a01b039283169263095ea7b3926111ac92911690859060040161228b565b6020604051808303816000875af11580156111cb573d6000803e3d6000fd5b505050506040513d601f19601f820116820180604052508101906111ef91906122a4565b50600354604051630f04e3cf60e11b8152600481018390526001600160a01b0390911690631e09c79e90602401600060405180830381600087803b15801561123657600080fd5b505af115801561124a573d6000803e3d6000fd5b5050505061164d565b60008560040154826112659190612220565b6001546003546004808a015460405163095ea7b360e01b81529495506001600160a01b039384169463095ea7b39461129f9416920161228b565b6020604051808303816000875af11580156112be573d6000803e3d6000fd5b505050506040513d601f19601f820116820180604052508101906112e291906122a4565b50600354600487810154604051630f04e3cf60e11b8152918201526001600160a01b0390911690631e09c79e90602401600060405180830381600087803b15801561132c57600080fd5b505af1158015611340573d6000803e3d6000fd5b50505050600081111561164b57600480546001880154604051630b37bac560e11b81526001600160a01b039283169363166f758a9361138393169186910161228b565b600060405180830381600087803b15801561139d57600080fd5b505af11580156113b1573d6000803e3d6000fd5b50506001546003546040516370a0823160e01b81523060048201526001600160a01b03928316945063095ea7b39350911690849084906370a0823190602401602060405180830381865afa15801561140d573d6000803e3d6000fd5b505050506040513d601f19601f8201168201806040525081019061143191906122dd565b1061143c57836114a8565b6001546040516370a0823160e01b81523060048201526001600160a01b03909116906370a0823190602401602060405180830381865afa158015611484573d6000803e3d6000fd5b505050506040513d601f19601f820116820180604052508101906114a891906122dd565b6040518363ffffffff1660e01b81526004016114c592919061228b565b6020604051808303816000875af11580156114e4573d6000803e3d6000fd5b505050506040513d601f19601f8201168201806040525081019061150891906122a4565b506003546001546040516370a0823160e01b81523060048201526001600160a01b0392831692631e09c79e9285929116906370a0823190602401602060405180830381865afa15801561155f573d6000803e3d6000fd5b505050506040513d601f19601f8201168201806040525081019061158391906122dd565b1061158e57826115fa565b6001546040516370a0823160e01b81523060048201526001600160a01b03909116906370a0823190602401602060405180830381865afa1580156115d6573d6000803e3d6000fd5b505050506040513d601f19601f820116820180604052508101906115fa91906122dd565b6040518263ffffffff1660e01b815260040161161891815260200190565b600060405180830381600087803b15801561163257600080fd5b505af1158015611646573d6000803e3d6000fd5b505050505b505b505b6040805182815260208101859052908101839052339086907f4138e52ebdbf110b0dfc1b775c780a3a6a439b887675561d8cafca73af533ba19060600160405180910390a35050505050565b60008281526007602081905260409091209081015460ff166116cf5760405162461bcd60e51b8152600401610451906121dd565b60018101546001600160a01b0316331461171c5760405162461bcd60e51b815260206004820152600e60248201526d2737ba103a3432903a3930b232b960911b6044820152606401610451565b600082116117615760405162461bcd60e51b81526020600482015260126024820152710416d6f756e74206d757374206265203e20360741b6044820152606401610451565b6001546040516370a0823160e01b815233600482015283916001600160a01b0316906370a0823190602401602060405180830381865afa1580156117a9573d6000803e3d6000fd5b505050506040513d601f19601f820116820180604052508101906117cd91906122dd565b10156118125760405162461bcd60e51b8152602060048201526014602482015273496e73756666696369656e742062616c616e636560601b6044820152606401610451565b6001546040516323b872dd60e01b8152336004820152306024820152604481018490526001600160a01b03909116906323b872dd906064016020604051808303816000875af1158015611869573d6000803e3d6000fd5b505050506040513d601f19601f8201168201806040525081019061188d91906122a4565b50818160040160008282546118a29190612392565b9091555050604051828152339084907f76fbd547a1eb97e5fa189ec085d890842f52af94e612e750022d3073ce128cbb9060200160405180910390a3505050565b6000600282101580156118f75750600a8211155b6119365760405162461bcd60e51b815260206004820152601060248201526f496e76616c6964206c6576657261676560801b6044820152606401610451565b600083116119795760405162461bcd60e51b815260206004820152601060248201526f053697a65206d757374206265203e20360841b6044820152606401610451565b60006119858385612277565b90506000612710611997600a876122f6565b6119a19190612277565b905060006119af8284612392565b6001546040516370a0823160e01b815233600482015291925082916001600160a01b03909116906370a0823190602401602060405180830381865afa1580156119fc573d6000803e3d6000fd5b505050506040513d601f19601f82011682018060405250810190611a2091906122dd565b1015611a655760405162461bcd60e51b8152602060048201526014602482015273496e73756666696369656e742062616c616e636560601b6044820152606401610451565b6001546040516323b872dd60e01b8152336004820152306024820152604481018390526001600160a01b03909116906323b872dd906064016020604051808303816000875af1158015611abc573d6000803e3d6000fd5b505050506040513d601f19601f82011682018060405250810190611ae091906122a4565b506000611aee600a84612277565b90506000611afc8285612220565b6001546004805460405163a9059cbb60e01b81529394506001600160a01b039283169363a9059cbb93611b349392169187910161228b565b6020604051808303816000875af1158015611b53573d6000803e3d6000fd5b505050506040513d601f19601f82011682018060405250810190611b7791906122a4565b5060015460035460405163095ea7b360e01b81526001600160a01b039283169263095ea7b392611bae92911690859060040161228b565b6020604051808303816000875af1158015611bcd573d6000803e3d6000fd5b505050506040513d601f19601f82011682018060405250810190611bf191906122a4565b50600354604051630f04e3cf60e11b8152600481018390526001600160a01b0390911690631e09c79e90602401600060405180830381600087803b158015611c3857600080fd5b505af1158015611c4c573d6000803e3d6000fd5b505050506000600260009054906101000a90046001600160a01b03166001600160a01b03166398d5fdca6040518163ffffffff1660e01b8152600401602060405180830381865afa158015611ca5573d6000803e3d6000fd5b505050506040513d601f19601f82011682018060405250810190611cc991906122dd565b905060008111611d0b5760405162461bcd60e51b815260206004820152600d60248201526c496e76616c696420707269636560981b6044820152606401610451565b60068054906000611d1b836123a5565b909155505060055460408051639fd84dad60e01b815290516000926001600160a01b031691639fd84dad9160048083019260209291908290030181865afa158015611d6a573d6000803e3d6000fd5b505050506040513d601f19601f82011682018060405250810190611d8e91906122dd565b90506040518061012001604052806006548152602001336001600160a01b031681526020018c151581526020018b81526020018a8152602001888152602001838152602001828152602001600115158152506007600060065481526020019081526020016000206000820151816000015560208201518160010160006101000a8154816001600160a01b0302191690836001600160a01b0316021790555060408201518160010160146101000a81548160ff021916908315150217905550606082015181600201556080820151816003015560a0820151816004015560c0820151816005015560e082015181600601556101008201518160070160006101000a81548160ff02191690831515021790555090505060086000336001600160a01b03166001600160a01b0316815260200190815260200160002060065490806001815401808255809150506001900390600052602060002001600090919091909150558a15611f13578960096000828254611f089190612392565b90915550611f2b9050565b89600a6000828254611f259190612392565b90915550505b600554600954600a5460405163022dbc2760e51b8152600481019290925260248201526001600160a01b03909116906345b784e090604401600060405180830381600087803b158015611f7d57600080fd5b505af1158015611f91573d6000803e3d6000fd5b5050600654604080518f15158152602081018f90529081018d9052606081018690523393509091507fbb247981ab5c2ce2b49f926f8279426af7f7802eb4e40f9b9a3ae274ac9f201d9060800160405180910390a350506006549998505050505050505050565b612000612036565b6001600160a01b03811661202a57604051631e4fbdf760e01b815260006004820152602401610451565b61203381612063565b50565b6000546001600160a01b03163314610e695760405163118cdaa760e01b8152336004820152602401610451565b600080546001600160a01b038381166001600160a01b0319831681178455604051919092169283917f8be0079c531659141344cd1fd0a4f28419497f9722a3daafe3b4186f6b6457e09190a35050565b80356001600160a01b03811681146120ca57600080fd5b919050565b6000602082840312156120e157600080fd5b6120ea826120b3565b9392505050565b6020808252825182820181905260009190848201906040850190845b818110156121295783518352928401929184019160010161210d565b50909695505050505050565b60006020828403121561214757600080fd5b5035919050565b6000806040838503121561216157600080fd5b61216a836120b3565b946020939093013593505050565b6000806040838503121561218b57600080fd5b50508035926020909101359150565b801515811461203357600080fd5b6000806000606084860312156121bd57600080fd5b83356121c88161219a565b95602085013595506040909401359392505050565b602080825260139082015272506f736974696f6e206e6f742061637469766560681b604082015260600190565b634e487b7160e01b600052601160045260246000fd5b818103818111156122335761223361220a565b92915050565b80820182811260008312801582168215821617156122595761225961220a565b505092915050565b634e487b7160e01b600052601260045260246000fd5b60008261228657612286612261565b500490565b6001600160a01b03929092168252602082015260400190565b6000602082840312156122b657600080fd5b81516120ea8161219a565b6000600160ff1b82016122d6576122d661220a565b5060000390565b6000602082840312156122ef57600080fd5b5051919050565b80820281158282048414176122335761223361220a565b818103600083128015838313168383128216171561232d5761232d61220a565b5092915050565b80820260008212600160ff1b841416156123505761235061220a565b81810583148215176122335761223361220a565b60008261237357612373612261565b600160ff1b82146000198414161561238d5761238d61220a565b500590565b808201808211156122335761223361220a565b6000600182016123b7576123b761220a565b506001019056fea26469706673582212206d9a4ff576987479fe1671ccd51f42fbc2a693ae191c3da618808ffcddf727c764736f6c63430008180033",
  "linkReferences": {},
  "deployedLinkReferences": {}
}